:020000040000FA
:04000000803119280A
:1000060008007E1480310B1F09280A2817282100B2
:10001600931D0E280F2817282000931D1328142837
:1000260017289531A52580317E10090080311B28BF
:10003600CE30840095308500D630860000308700AB
:100046000C308731FA278031C130840000308500BA
:1000560015309531B1258031553084000130850049
:1000660018309531B12580312300AF01B001B101BF
:10007600B2017E1020009631F82E013096311126FD
:10008600803171082100D2007008D1004430200070
:10009600E3008030E2000030E1000030E000413053
:1000A600AD00F030AC000030AB000030AA002100FB
:1000B6005108F9005208FA00FB01FC0100308831B2
:1000C6004E2080317C082000B1007B08B0007A0801
:1000D600AF007908AE0085317F25803120002D08DC
:1000E600E7002C08E6002B08E5002A08E400893121
:1000F600A8218031200063082100C8002000620882
:100106002100C700200061082100C6002000600809
:100116002100C50002305506031D92289328A62803
:100126004808F3004708F2004608F1004508F000C9
:100136004430F7008030F6000030F5000030F4005F
:10014600973176278031210044082200E4002100FF
:1001560043082200E300210042082200E2002100B9
:1001660041082200E100210048082200EC0021009D
:1001760047082200EB00210046082200EA00210081
:1001860045082200E900210048082000DB00210084
:1001960047082000DA00210046082000D900210087
:1001A60045082000D800210061082000DF0021005A
:1001B60060082000DE0021005F082000DD0021002D
:1001C6005E082000DC0096316326803120005B0843
:1001D6002100C40020005A082100C300200059084D
:1001E6002100C200200058082100C1004408220056
:1001F600E000210043082200DF002100420822001F
:10020600DE00210041082200DD0021004408200014
:10021600C700210043082000C60021004208200034
:10022600C500210041082000C4003C30AD00233049
:10023600AC00D730AB000A30AA00210044082000E9
:10024600B100210043082000B00021004208200030
:10025600AF00210041082000AE0085317F258031A6
:1002660020002D08CB002C08CA002B08C9002A083C
:10027600C8008D31C8258031200047082200DC00E7
:10028600200046082200DB00200045082200DA0094
:10029600200044082200D9003C302000E30023302F
:1002A600E200D730E1000A30E000220064082000B6
:1002B600DB00220063082000DA002200620820002A
:1002C600D900220061082000D8002100440820003F
:1002D600DF00210043082000DE0021004208200044
:1002E600DD00210041082000DC00963163268031C4
:1002F60020005B08E7005A08E6005908E5005808A0
:10030600E4008931A8218031200063082200D8004A
:10031600200062082200D700200061082200D600D3
:10032600200060082200D500132B02304C0200305A
:1003360003194B020318A029A129A6290230CB07CD
:100346000030CC3D272B0230AD002D08D500272BE1
:100356005D082000B10021005C082000B0002100EB
:100366005B082000AF0021005A082000AE002200E2
:1003760060082000AD0022005F082000AC002200CB
:100386005E082000AB0022005D082000AA0085312F
:100396007F25803120002D08CB002C08CA002B08B1
:1003A600C9002A08C800210048082000C70021000B
:1003B60047082000C600210046082000C50021008D
:1003C60045082000C4008D31C8258031200047082B
:1003D6002100B400200046082100B3002000450893
:1003E6002100B200200044082100B100340820009A
:1003F600CB00210033082000CA002100320820006B
:10040600C900210031082000C80021005908200039
:10041600B100210058082000B00021005708200034
:10042600AF00210056082000AE0022005C08200024
:10043600AD0022005B082000AC0022005A08200014
:10044600AB00220059082000AA0085317F258031A3
:1004560020002D08C7002C08C6002B08C5002A0856
:10046600C4008D31C8258031200047082100B8001E
:10047600200046082100B700200045082100B600EC
:10048600200044082100B50038082000CB002100D8
:1004960037082000CA00210036082000C9002100C4
:1004A60035082000C800220068082000B10022009C
:1004B60067082000B000220066082000AF00220076
:1004C60065082000AE00220058082000AD0022007A
:1004D60057082000AC00220056082000AB0022007E
:1004E60055082000AA0085317F25803120002D087F
:1004F600C7002C08C6002B08C5002A08C4008D3189
:10050600C8258031200047082100C0002000460889
:100516002100BF00200045082100BE00200044083D
:100526002100BD0040082000B10021003F08200046
:10053600B00021003E082000AF0021003D08200049
:10054600AE004430AD008030AC000030AB0000306F
:10055600AA0085317F25803120002D08C7002C0890
:10056600C6002B08C5002A08C400963183268031B0
:10057600200044082100AD00200045082100AE00FF
:10058600AF01B0013008FC002F08FB002E08FA006E
:100596002D08F900003088314E2080317C0820007B
:1005A600E7007B08E6007A08E5007908E4004130B8
:1005B600E300C030E2000030E1000030E0008931A5
:1005C600A8218031200063082100BC0020006208B9
:1005D6002100BB00200061082100BA00200060084D
:1005E6002100B9003C082000C70021003B0820007C
:1005F600C60021003A082000C50021003908200065
:10060600C400963183268031200045082100CC00A5
:10061600200044082100CB00272BCB01CC01272B3F
:1006260021005508AD00AE012E08003A03191C2B17
:10063600272B2D08013A03199829033A0319AB29E8
:10064600F23A0319102B272B0800220031088039B3
:10065600B6003608BB003135B6003608C100B01FFB
:10066600352B362B372B4114410803193B2B3C2BDA
:100676004B2B410A031D402B412B492B0030B10067
:100686000030B0000030AF000030AE00B017532B82
:100696000030B1000030B0000030AF000030AE00D6
:1006A60035088039B6003608BB063535B60036083B
:1006B600BC00B41F5F2B602B612B3C143C08031954
:1006C600652B662B752B3C0A031D6A2B6B2B732B34
:1006D6000030B5000030B4000030B3000030B20086
:1006E600B4177D2B0030B5000030B4000030B300E5
:1006F6000030B2003C080319812B822B872B41085E
:10070600031D862B872B902B0030B1000030B000E4
:100716000030AF000030AE007E2D2E08B600360841
:10072600A00034088731D627833122002108C7006C
:100736002008C6004608B600B701B801B901390855
:10074600C0003808BF003708BE003608BD0047089D
:10075600B600B701B801B9013908C5003808C400A8
:100766003708C3003608C2002F08B6003608A000B6
:1007760033088731D627833122002108C700200895
:10078600C6004608B600B701B801B9013608BD076C
:100796003708BE3D3808BF3D3908C03D4708B6009A
:1007A600B701B801B9013608C2073708C33D380892
:1007B600C43D3908C53D3008B6003608A0003208E9
:1007C6008731D627833122002108C7002008C600BA
:1007D6004608B600B701B801B9013608BD073708A3
:1007E600BE3D3808BF3D3908C03D4708B600B701D1
:1007F600B801B9013608C2073708C33D3808C43DF9
:100806003908C53D0830BD35BE0DBF0DC00D890B7D
:10081600062C2F08B6003608A00032088731D627E6
:10082600833122002108C7002008C6004608BD07FC
:100836004708BE3D0030BF3DC03D2E08B600360815
:10084600A00033088731D627833122002108C7004C
:100856002008C6004608BD074708BE3D0030BF3D1C
:10086600C03D0830BD35BE0DBF0DC00D890B352C02
:100876002E08B6003608A00032088731D627833105
:1008860022002108C7002008C6004608BD07470801
:10089600BE3D0030BF3DC03D2F08B6003608A00063
:1008A60034088731D627833122002108C700200863
:1008B600C6004608C2074708C33D0030C43DC53DD3
:1008C6003008B6003608A00033088731D6278331B2
:1008D60022002108C7002008C6004608C2074708AC
:1008E600C33D0030C43DC53D3008B6003608A00003
:1008F60034088731D627833122002108C700200813
:10090600C6004608B6004708B700B801B901083066
:10091600B635B70DB80DB90D890B8B2C3608C20745
:100926003708C33D3808C43D3908C53D3D08B60003
:100936003E08B7003F08B8004008B9001830B9367D
:10094600B80CB70CB60C890BA22C3608C2073708B0
:10095600C33D3808C43D3908C53D0830BD35BE0D18
:10096600BF0DC00D890BB12C41083C07B600B7017D
:10097600B70D3608823EC600FF30373DC700DA2C79
:100986000130C235C30DC40DC50D890BC42CC01F63
:10099600CD2CCE2CCF2C42140130BD35BE0DBF0D53
:1009A600C00D890BD02CFF30C607FF30C73DC41FD2
:1009B600DD2CDE2CC32CBC01C01FE22CE32CFF2C4B
:1009C600FF303D05B600FF303E05B700FF303F055E
:1009D600B8007F304005B9003908380437043604BA
:1009E6000319F62CF72CFA2CBC01BC0AFF2C421C6E
:1009F600FD2CFE2CFF2CF72C3C080319032D042D8F
:100A06002C2D0130C2070030C33D0030C43D0030FC
:100A1600C53D451C0F2D102D2C2D4208B600430850
:100A2600B7004408B8004508B9000130BA00B93724
:100A3600B80CB70CB60CBA0B1A2D3908C500380815
:100A4600C4003708C3003608C2000130C6070030AC
:100A5600C73D4708803AB60080303602031D352D63
:100A6600FF304602031C382D392D432D7F302200DE
:100A7600C5008030C4000030C3000030C200722DB3
:100A860022004708803AB60080303602031D4D2DFD
:100A9600013046020318502D512D5C2D00302200E6
:100AA600C5000030C4000030C3000030C200BB01E6
:100AB600722D22004608B6003608C100FF30C20576
:100AC600FF30C3057F30C4050030C505411C6C2DC1
:100AD6006D2D6E2DC4174136B6003608C5003B088D
:100AE600B6003608C5044508B1004408B0004308FE
:100AF600AF004208AE00080020002D088039B20081
:100B06003208B7002D35B2003208BD00AC1F8C2D5F
:100B16008D2D8E2D3D143D080319922D932DA22D5A
:100B26003D0A031D972D982DA02D0030AD000030F5
:100B3600AC000030AB000030AA00AC17AA2D003084
:100B4600AD000030AC000030AB000030AA00310828
:100B56008039B2003208B7063135B2003208BC001F
:100B6600B01FB62DB72DB82D3C143C080319BC2D6B
:100B7600BD2DCC2D3C0A031DC12DC22DCA2D003022
:100B8600B1000030B0000030AF000030AE00B0174A
:100B9600D42D0030B1000030B0000030AF0000307E
:100BA600AE003C080319D82DD92DDE2D3D08031DB6
:100BB600DD2DDE2DE72D0030AD000030AC0000301D
:100BC600AB000030AA00D52F2A08B2003208F00088
:100BD600300888312B20853171082000C300700849
:100BE600C2004208B200B301B401B5013508BB002A
:100BF6003408BA003308B9003208B8004308B20016
:100C0600B301B401B5013508C1003408C00033088A
:100C1600BF003208BE002B08B2003208F0002F08D1
:100C260088312B20853171082000C3007008C2006E
:100C36004208B200B301B401B5013208B80733085F
:100C4600B93D3408BA3D3508BB3D4308B200B3018F
:100C5600B401B5013208BE073308BF3D3408C03DB4
:100C66003508C13D2C08B2003208F0002E08883144
:100C76002B20853171082000C3007008C20042088D
:100C8600B200B301B401B5013208B8073308B93D63
:100C96003408BA3D3508BB3D4308B200B301B40180
:100CA600B5013208BE073308BF3D3408C03D3508DC
:100CB600C13D0830B835B90DBA0DBB0D890B5D2E97
:100CC6002B08B2003208F0002E0888312B2085311F
:100CD60071082000C3007008C2004208B807430824
:100CE600B93D0030BA3DBB3D2A08B2003208F000DB
:100CF6002F0888312B20853171082000C300700829
:100D0600C2004208B8074308B93D0030BA3DBB3DB2
:100D16000830B835B90DBA0DBB0D890B8C2E2A08D3
:100D2600B2003208F0002E0888312B208531710878
:100D36002000C3007008C2004208B8074308B93D46
:100D46000030BA3DBB3D2B08B2003208F000300837
:100D560088312B20853171082000C3007008C2003D
:100D66004208BE074308BF3D0030C03DC13D2C08C8
:100D7600B2003208F0002F0888312B208531710827
:100D86002000C3007008C2004208BE074308BF3DEA
:100D96000030C03DC13D2C08B2003208F0003008DA
:100DA60088312B20853171082000C3007008C200ED
:100DB6004208B2004308B300B401B5010830B235A9
:100DC600B30DB40DB50D890BE22E3208BE073308FC
:100DD600BF3D3408C03D3508C13D3808B20039086A
:100DE600B3003A08B4003B08B5001830B536B40C69
:100DF600B30CB20C890BF92E3208BE073308BF3D7F
:100E06003408C03D3508C13D0830B835B90DBA0DB6
:100E1600BB0D890B082F3D083C07B200B301B30D8B
:100E26003208823EC200FF30333DC300312F01300D
:100E3600BE35BF0DC00DC10D890B1B2FBB1F242F47
:100E4600252F262F3E140130B835B90DBA0DBB0D2E
:100E5600890B272FFF30C207FF30C33DC01F342F39
:100E6600352F1A2FBC01BB1F392F3A2F562FFF30B3
:100E76003805B200FF303905B300FF303A05B4003B
:100E86007F303B05B50035083404330432040319BA
:100E96004D2F4E2F512FBC01BC0A562F3E1C542FEE
:100EA600552F562F4E2F3C0803195A2F5B2F832F91
:100EB6000130BE070030BF3D0030C03D0030C13DAF
:100EC600411C662F672F832F3E08B2003F08B300F0
:100ED6004008B4004108B5000130B600B537B40C7F
:100EE600B30CB20CB60B712F3508C1003408C00024
:100EF6003308BF003208BE000130C2070030C33DD0
:100F06004308803AB20080303202031D8C2FFF3036
:100F16004202031C8F2F902F9A2F7F302000C10092
:100F26008030C0000030BF000030BE00C92F200056
:100F36004308803AB20080303202031DA42F0130EC
:100F460042020318A72FA82FB32F00302000C1009C
:100F56000030C0000030BF000030BE00B701C92F0E
:100F660020004208B2003208BD00FF30BE05FF3047
:100F7600BF057F30C0050030C1053D1CC32FC42FFF
:100F8600C52FC0173D36B2003208C1003708B2007F
:100F96003208C1044108AD004008AC003F08AB0070
:100FA6003E08AA0008002200A800A401A501200806
:100FB600A200A3012208A6002308A700281CE42FEC
:100FC600E52FE92F2608A4072708A53D0130A635F9
:100FD600A70D890BEA2F0310A80C2808031DF42F70
:100FE600F52FE12F2508A1002408A0000800FE0027
:0A0FF60012001E00FE0BFB2F00345A
:101002000C3026009A00980199013F3025009E0578
:1010120008002200A3002308A200A20DA20D2100B5
:101022001D08220022068339220621009D001D147C
:101032000630890B1A28003221009D149D1822289F
:1010420023281F281C082200A10021001B082200BF
:10105200A0000800F800F401F5017008F200F301A5
:101062007208F6007308F700781C382839283D28E2
:101072007608F4077708F53D0130F635F70D890B50
:101082003E280310F80C7808031D48284928352803
:101092007508F1007408F00008002000A40024087C
:1010A2000319542855286928FC1F582859286928EB
:1010B2007909A6007A09A7007B09A8007C09A90082
:1010C200A60A0319A70A0319A80A0319A90A71286B
:1010D2007C08A9007B08A8007A08A7007908A60066
:1010E2007C087B047A047904031D782879288228F5
:1010F2000030FC000030FB000030FA000030F90044
:10110200FA289630A0002008A50092280130A000FD
:101112002008A5070130A936A80CA70CA60C890B3C
:101122008C28FE302905031D972898288728AC288B
:101132000130A0002008A5070130A6070030A73D16
:101142000030A83D0030A93D0130A936A80CA70CFB
:10115200A60C890BA628FF302905031DB128B22849
:101162009928BC280130A5020130A635A70DA80D8B
:10117200A90D890BB628A81BBF28C028C628023093
:1011820025020318C528C628B3282518C928CA2845
:10119200D228FF30A605FF30A7057F30A805FF3013
:1011A200A9050310A50C2508A000A101A201A30115
:1011B2001830A035A10DA20DA30D890BDA28200845
:1011C200A6042108A7042208A8042308A9042408C5
:1011D2000319EC28ED28F228FC1FF028F128F22848
:1011E200A9172908FC002808FB002708FA0026088E
:1011F200F90008002200A800280803190129022981
:101202001629A31F0529062916292009AA00210942
:10121200AB002209AC002309AD00AA0A0319AB0AEC
:101222000319AC0A0319AD0A1E292308AD002208CE
:10123200AC002108AB002008AA00230822042104E4
:101242002004031D252926292F290030A300003060
:10125200A2000030A1000030A000A7299630A4000F
:101262002408A9003F290130A4002408A90701305D
:10127200AD36AC0CAB0CAA0C890B3929FE302D050E
:10128200031D44294529342959290130A400240881
:10129200A9070130AA070030AB3D0030AC3D003059
:1012A200AD3D0130AD36AC0CAB0CAA0C890B532909
:1012B200FF302D05031D5E295F294629692901306A
:1012C200A9020130AA35AB0DAC0DAD0D890B632916
:1012D200AC1B6C296D29732902302902031872296B
:1012E200732960292918762977297F29FF30AA05D1
:1012F200FF30AB057F30AC05FF30AD050310A90C04
:101302002908A400A501A601A7011830A435A50D3E
:10131200A60DA70D890B87292408AA042508AB046A
:101322002608AC042708AD042808031999299A292C
:101332009F29A31F9D299E299F29AD172D08A30030
:101342002C08A2002B08A1002A08A00008002000F7
:1013520067088039E80068082100A400200067358A
:10136200E80068082100AB002000E61FB929BA296D
:10137200BC2921002B1421002B080319C129C229E1
:10138200D4292B0A031DC629C729D02900302000E1
:10139200E7000030E6000030E5000030E400200005
:1013A200E617E701DD2900302000E7000030E60003
:1013B2000030E5000030E40063088039E800680886
:1013C2002100A40620006335E80068082100AC0073
:1013D2002000E21FED29EE29F02921002C14210022
:1013E2002C080319F529F629082A2C0A031DFA29C3
:1013F200FB29042A00302000E3000030E200003024
:10140200E1000030E0002000E217E301112A003081
:101412002000E3000030E2000030E1000030E00094
:101422006308620461046004031D182A192A342A1D
:101432000030E7000030E6000030E5000030E40054
:101442008030E6047F30E704210024082000E80011
:101452006808E7046708E3006608E2006508E1003F
:101462006408E000B72B21002B08031D392A3A2A11
:10147200442A00302000E3000030E2000030E100A6
:101482000030E000B72B2B082000E800E9016908D2
:10149200EB0021002C0820006802EA00031CEB0389
:1014A2006A087F3E2100A500003020006B3D21002C
:1014B200A600200067082100A30020006608210082
:1014C200A200200065082100A1002000640821007C
:1014D200A00000302000E7000030E6000030E50008
:1014E2000030E40000302100AA000030A9000030E2
:1014F200A8000030A700AC01D22A2C080319822AC6
:10150200832AA12A0130A035A10DA20DA30D890BBA
:10151200842A01302000E435E50DE60DE70D890B44
:101522008B2A2100AA1F962A972A992A200064143E
:1015320001302100A735A80DA90DAA0D890B9A2A01
:101542002000630821002302031DB72A200062083D
:1015520021002202031DB72A200061082100210276
:10156200031DB72A2000600821002002031CBA2AAA
:10157200BB2ACC2A2A17200060082100A0022000E2
:1015820061082100A13B200062082100A23B20004B
:1015920063082100A33B01302000E8006808210015
:1015A200AC071A302C02031CD72AD82A7E2A230819
:1015B2002204210420040319DF2AE02AFC2A27142A
:1015C200FC2A0130E435E50DE60DE70D890BE32A2F
:1015D2002100AA1FED2AEE2AF02A2000641401300D
:1015E2002100A735A80DA90DAA0D890BF12AFF30FC
:1015F200A507FF30A63D2000E61F002B012BE22AA3
:101602002100AC01AA1F062B072B2B2BFF3027052D
:101612002000E800FF30210028052000E900FF300B
:10162200210029052000EA007F3021002A05200040
:10163200EB006B086A04690468040319212B222B4E
:10164200262B2100AC01AC0A2B2B641C292B2A2B44
:101652002B2B222B21002C080319302B312B5B2B37
:1016620001302000E4070030E53D0030E63D003067
:10167200E73D671C3D2B3E2B5B2B6408E8006508A9
:10168200E9006608EA006708EB000130EC00EB377E
:10169200EA0CE90CE80CEC0B482B6B08E7006A0833
:1016A200E6006908E5006808E40001302100A507AA
:1016B2000030A63D21002608803A2000E800803054
:1016C2006802031D672BFF3021002502031C6A2BD1
:1016D2006B2B792BFF302100A5000030A6000030D3
:1016E2002000E7000030E6000030E5000030E400B2
:1016F20021002608803A2000E80080306802031D9D
:10170200852B0130210025020318882B892B972B6A
:101712002100A501A60100302000E7000030E6000C
:101722000030E5000030E4002100A401210025087A
:101732002000E80068082100AB002B1CA12BA22B83
:10174200A52B2000E617AA2B7F302000E8006808AE
:10175200E60521002B362000E8006808E70021009A
:1017620024082000E8006808E7042B2A0800220069
:101772004F088039D00050082300A40022004F35C2
:10178200D00050082300AB002200CE1FC92BCA2B69
:10179200CC2B23002B1423002B080319D12BD22B83
:1017A200E42B2B0A031DD62BD72BE02B0030220073
:1017B200CF000030CE000030CD000030CC0022003F
:1017C200CE17CF01ED2B00302200CF000030CE002B
:1017D2000030CD000030CC004B088039D0005008DA
:1017E2002300A40622004B35D00050082300AC0091
:1017F2002200CA1FFD2BFE2B002C23002C142300D9
:101802002C080319052C062C182C2C0A031D0A2C53
:101812000B2C142C00302200CB000030CA00003008
:10182200C9000030C8002200CA17CB01212C0030A9
:101832002200CB000030CA000030C9000030C800CE
:101842004B084A0449044804031D282C292C442C23
:101852000030CF000030CE000030CD000030CC0090
:101862008030CE047F30CF04230024082200D00031
:101872005008CF044F08CB004E08CA004D08C900DB
:101882004C08C800C72D23002B08031D492C4A2CE5
:10189200542C00302200CB000030CA000030C900B6
:1018A2000030C800C72D2B082200D000D1015108FA
:1018B200D30023002C0822005002D200031CD303C1
:1018C20052087F3E2300A50000302200533D230032
:1018D200A60022004F082300A30022004E08230086
:1018E200A20022004D082300A10022004C08230080
:1018F200A00000302200CF000030CE000030CD002A
:101902000030CC0000302300AA000030A9000030D3
:10191200A8000030A700AC01E22C2C080319922C7D
:10192200932CB12C0130A035A10DA20DA30D890B72
:10193200942C01302200CC35CD0DCE0DCF0D890B6C
:101942009B2C2300AA1FA62CA72CA92C22004C14E6
:1019520001302300A735A80DA90DAA0D890BAA2CC9
:1019620022004B0823002302031DC72C22004A0831
:1019720023002202031DC72C220049082300210252
:10198200031DC72C2200480823002002031CCA2C76
:10199200CB2CDC2C2A17220048082300A0022200AC
:1019A20049082300A13B22004A082300A23B22004F
:1019B2004B082300A33B01302200D0005008230033
:1019C200AC071A302C02031CE72CE82C8E2C2308BF
:1019D2002204210420040319EF2CF02C0C2D2714CF
:1019E2000C2D0130CC35CD0DCE0DCF0D890BF32C46
:1019F2002300AA1FFD2CFE2C002D22004C140130C6
:101A02002300A735A80DA90DAA0D890B012DFF30C2
:101A1200A507FF30A63D2200CE1F102D112DF22C5E
:101A22002300AC01AA1F162D172D3B2DFF302705D1
:101A32002200D000FF30230028052200D100FF3011
:101A4200230029052200D2007F3023002A0522002C
:101A5200D30053085204510450040319312D322D7E
:101A6200362D2300AC01AC0A3B2D4C1C392D3A2DEE
:101A72003B2D322D23002C080319402D412D6B2DB7
:101A820001302200CC070030CD3D0030CE3D003089
:101A9200CF3D4F1C4D2D4E2D6B2D4C08D0004D08C7
:101AA200D1004E08D2004F08D3000130D400D33702
:101AB200D20CD10CD00CD40B582D5308CF005208A5
:101AC200CE005108CD005008CC0001302300A507FC
:101AD2000030A63D23002608803A2200D000803044
:101AE2005002031D772DFF3023002502031C7A2D9F
:101AF2007B2D892DFF302300A5000030A600003089
:101B02002200CF000030CE000030CD000030CC00EB
:101B120023002608803A2200D00080305002031DA4
:101B2200952D0130230025020318982D992DA72DFC
:101B32002300A501A60100302200CF000030CE0014
:101B42000030CD000030CC002300A4012300250882
:101B52002200D00050082300AB002B1CB12DB22D67
:101B6200B52D2200CE17BA2D7F302200D0005008AA
:101B7200CE0523002B362200D0005008CF002300D0
:101B820024082200D0005008CF043B2C080020007B
:101B920047088039CC004C08D4004735CC004C08AB
:101BA200D600C61FD52DD62DD72D5614560803198B
:101BB200DB2DDC2DEC2D560A031DE02DE12DE92D48
:101BC2000030C7000030C6000030C5000030C4003D
:101BD200C617C701F42D0030C7000030C600003020
:101BE200C5000030C4004B088039CC004C08D50039
:101BF200550854060319FE2DFF2D002E54174B35A0
:101C0200CC004C08D500CA1F072E082E092E5514E9
:101C1200550803190D2E0E2E1E2E550A031D122EC7
:101C2200132E1B2E0030CB000030CA000030C9003A
:101C32000030C800CA17CB01262E0030CB0000307E
:101C4200CA000030C9000030C80056085502031807
:101C52002B2E2C2E702E541F2F2E302E342E8030F1
:101C6200CC004C08D4065608CC004C08D7005508C6
:101C7200CC004C08D6005708CC004C08D5004408CC
:101C8200CC004C08D7004808CC004C08C4005708C8
:101C9200CC004C08C8004508CC004C08D7004908C5
:101CA200CC004C08C5005708CC004C08C9004608B7
:101CB200CC004C08D7004A08CC004C08C600570894
:101CC200CC004C08CA004708CC004C08D7004B088F
:101CD200CC004C08C7005708CC004C08CB00D701F9
:101CE2005508CC00CD014D08CF0056084C02CE005D
:101CF200031CCF034F08803AD00080305002031DEE
:101D0200842E1A304E02031C872E882EC02E2000ED
:101D12004708460445044404031D902E922E0130C8
:101D2200932E0030CC004C08D7000030C7000030A2
:101D3200C6000030C5000030C4005508CC004C0875
:101D4200D600C72E571CA62EA72EAD2E5736013809
:101D5200CC004C08D700AF2E0310D70C441CB22E77
:101D6200B32EB42ED7170130CC00C737C60CC50C22
:101D7200C40CCC0BB62E0130CC004C08D607200088
:101D820055085602031CC62EC72EA32E541BCA2E5C
:101D9200CB2E032F5608031DCF2ED02ED92E003066
:101DA200C7000030C6000030C5000030C400FF2F5D
:101DB2004808C4074908C53D4A08C63D4B08C73D07
:101DC200471CE42EE52E8F2F571CE82EE92EEF2E0E
:101DD20057360138CC004C08D700F12E0310D70C2F
:101DE200441CF42EF52EF62ED7170130CC00C7373F
:101DF200C60CC50CC40CCC0BF82E0130CC004C0820
:101E0200D6078F2F4708803ACC004B08803A4C0205
:101E1200031D152F4A084602031D152F49084502C6
:101E2200031D152F480844020318182F192F512F8C
:101E3200FF30CC00FF30CD00FF30CE00FF30CF00AE
:101E420044084802D0004508493BD10046084A3BB5
:101E5200D20047084B3BD3005008CC075108CD3D78
:101E62005208CE3D5308CF3D4F08C7004E08C6006A
:101E72004D08C5004C08C4008030CC004C08D40684
:101E8200D709D70A5708031D472F482F592F01306A
:101E9200C4070030C53D0030C63D0030C73D592F54
:101EA2004808C4024908C53B4A08C63B4B08C73B21
:101EB2004708460445044404031D602F612F8B2FFD
:101EC2005708031D652F662F8B2F0030C700003087
:101ED200C6000030C5000030C400FF2F0130C435F9
:101EE200C50DC60DC70D890B702FD71F792F7A2FFD
:101EF2007B2F4414571C7E2F7F2F822F0314D70D64
:101F0200842F0310D70D56080319882F892F8B2F82
:101F12000130D602C61F8E2F8F2F6F2FD501D71FEC
:101F2200932F942FA22F57087F390319992F9A2F95
:101F32009D2FD501D50AA22F441CA02FA12FA22F7D
:101F42009A2F55080319A62FA72FD42F0130C407A3
:101F52000030C53D0030C63D0030C73D471CB22FA2
:101F6200B32FD42F4408CC004508CD004608CE003C
:101F72004708CF000130D000CF37CE0CCD0CCC0CAF
:101F8200D00BBD2F4F08C7004E08C6004D08C50034
:101F92004C08C400560A0319CF2FD02FD42F01307A
:101FA200CC004C08D607560A0319D82FD92FDE2F9A
:101FB2005608031DDD2FDE2FEC2F0030C700003046
:101FC200C6000030C5000030C4005608031DEA2FC9
:101FD200EB2FEC2FD401561CEF2FF02FF22FC61748
:101FE200F62F7F30CC004C08C6055636CC004C0884
:0E1FF200C700D41FFD2FFE2FFF2FC7170800BA
:102B42001630210097000800200093119531DA25F4
:102B52009531080022002108EE002008ED0008004F
:102B6200640080010131890BB22D00347A302100DA
:102B720099009801220096010800203021009E0051
:102B82009B019C0101309D000800FF3020009B004A
:102B92009A01911004309C0008000A34D734A334FF
:102BA2003B340034003480343F3400340034703419
:102BB200413422006D086E040319E02DE12DE62D4B
:102BC2006E088A006D080A0095310800F930280065
:102BD2009D009C01200093112100931503302200D7
:102BE200A0000030A1009531AB2595314E30280070
:102BF2009E00080096312C2695319531B7259531E6
:102C02009531A12595319531E72595319531BE252F
:102C120095318831012095319531C62595310800CD
:102C2200F3007308F200F20DF20D21001D08720686
:102C3200833972069D001D140630890B1E2E003248
:102C420021009D149D18262E272E232E1C08F100EC
:102C52001B08F0000800220090018C018D018E01FA
:102C6200083021009000FF308C00FE308D00FF30D4
:102C72008E003F3023008D003F308C0024009001F5
:102C82008D012100951722009D01080022002108D4
:102C9200A3002008A200A336A20CA336A20C22088D
:102CA20026009800220020080339A2000430A23531
:102CB200890B582E26001A08CF392200220426003A
:102CC2009A00080080302000DB065F08C7005E081B
:102CD200C6005D08C5005C08C4005B08CB005A084A
:102CE200CA005908C9005808C8008D31C825963154
:102CF20020004708DB004608DA004508D9004408EE
:102D0200D800080003102000460D470DC8004808EF
:102D1200CE004E08031D8E2E8F2E982E0030C70037
:102D22000030C6000030C5000030C400F72E440851
:102D3200C8004508C9004608CA004708CB001F3032
:102D4200CB36CA0CC90CC80C890BA12E4808CC0082
:102D52004C08CD00C617FF30C405FF30C505FF3053
:102D6200C6050030C7059630CE02CE1FB92EBA2E48
:102D7200D22E4E08803A973E0318C02EC12EC22E84
:102D82008F2E0130C736C60CC50CC40C890BC32E5E
:102D92000130C8004808CE07031DD02ED12EC22E06
:102DA200E72E20304E02031CD72ED82EE22E8F2E75
:102DB2000130C435C50DC60DC70D890BDA2E0130A1
:102DC200CE024E08031DE62EE72ED92E4D0803191A
:102DD200EB2EEC2EF72EC409C509C609C709C40A91
:102DE2000319C50A0319C60A0319C70A080095314F
:102DF200FB25963140302200A0000030A100953121
:102E0200AB2596318B170B1706302300AE0013301B
:102E1200AD00AD30890B0B2FAD0B0B2FAE0B0B2F73
:102E220000322100D501D50A003088310A209631BE
:102E3200220021082100CA00220020082100C90026
:102E420044302200CB008030CA000030C90000307C
:102E5200C8004130B100F030B0000030AF000030A7
:102E6200AE00210049082200A00021004A082200E9
:102E7200A100A201A30100308831FB20963122007B
:102E82002308B5002208B4002108B3002008B200CC
:102E920083312823963122003108CF003008CE003A
:102EA2002F08CD002E08CC008B31B823963122009A
:102EB2004B082300B20022004A082300B10022007E
:102EC20049082300B000220048082300AF00210077
:102ED2004C082200A10021004B082200A0009631DC
:102EE20047269631152F8031192800307005F800D9
:102EF20000307105F90080307205FA007F307305E9
:102F0200FB007B087A0479047804031D892F8A2F39
:102F1200922F0030F3000030F2000030F100003058
:102F2200F00000307405F80000307505F9008030BB
:102F32007605FA007F307705FB007B087A04790476
:102F42007804031DA52FA62FAE2F0030F700003006
:102F5200F6000030F5000030F400F31FB12FB22F5D
:102F6200CA2F0030F8000030F9000030FA0080303B
:102F7200FB007008F8027108F93B7208FA3B73080B
:102F8200FB3B7B08F3007A08F2007908F10078082D
:102F9200F000F71FCD2FCE2FE62F0030F8000030C3
:102FA200F9000030FA008030FB007408F80275085E
:102FB200F93B7608FA3B7708FB3B7B08F7007A0877
:102FC200F6007908F5007808F4008030F3068030C6
:102FD200F70677087302031DF82F76087202031DA5
:102FE200F82F75087102031DF82F74087002031878
:102FF200FB2FFC2FFE2F0310FF2F031408000034B9
:0E3002000034C034413400340034A0343F3474
:020000040001F9
:04000E00E43FFF1EAE
:00000001FF
