:020000040000FA
:10000000803102288731ED2F7A3021009900980144
:10001000220096010800F3007308F200F20DF20DC1
:1000200021001D087206833972069D001D140630DA
:10003000890B1828003221009D149D1820282128A2
:100040001D281C08F1001B08F00008000330F30015
:100050000030F40074088500730884000A308407B7
:100060009030853D000820008D0001308E00013069
:10007000F1000030F2003430F000F230890B3E28FD
:10008000F00B3E2820000E358E000130F1070030C5
:10009000F23D7208803AF00080307002031D522851
:1000A00008307102031C552856283B28FF30F307FF
:1000B000FF30F43DF41F5D285E282A280800031055
:1000C00020003C0D3D0DBE003E08C4004408031D49
:1000D0006A286B2874280030BD000030BC00003056
:1000E000BB000030BA00D3283A08BE003B08BF006E
:1000F0003C08C0003D08C1001F30C136C00CBF0C19
:10010000BE0C890B7D283E08C2004208C300BC1704
:10011000FF30BA05FF30BB05FF30BC050030BD0520
:100120009630C402C41F95289628AE284408803A09
:10013000973E03189C289D289E286B280130BD36C9
:10014000BC0CBB0CBA0C890B9F280130BE003E08CA
:10015000C407031DAC28AD289E28C32820304402C4
:10016000031CB328B428BE286B280130BA35BB0D58
:10017000BC0DBD0D890BB6280130C4024408031D17
:10018000C228C328B52843080319C728C828D3287C
:10019000BA09BB09BC09BD09BA0A0319BB0A03198C
:1001A000BC0A0319BD0A0800FB012000AD1FD928B5
:1001B000DA28E728AA09AB09AC09AD09AA0A03198C
:1001C000AB0A0319AC0A0319AD0AFB01FB0AA91F0C
:1001D000EA28EB28F628A609A709A809A909A60A6A
:1001E0000319A70A0319A80A0319A90A2908280448
:1001F000270426040319FD28FE283729FA01FA0AE4
:100200000C290130A635A70DA80DA90D890B0229CF
:100210000130F9007908FA07A91F0F2910290129CF
:1002200029082D02031D1E2928082C02031D1E2942
:1002300027082B02031D1E2926082A02031C212938
:1002400022292A292608AA022708AB3B2808AC3B0A
:100250002908AD3B0130A936A80CA70CA60C890BC8
:100260002B290130FA02031D3629372910297B0872
:1002700003193B293C294729AA09AB09AC09AD0957
:10028000AA0A0319AB0A0319AC0A0319AD0A2D080F
:10029000A9002C08A8002B08A7002A08A60008001F
:1002A0002000A101F31F552956296329F009F109FE
:1002B000F209F309F00A0319F10A0319F20A031902
:1002C000F30AA101A10AF71F662967297629F40913
:1002D000F509F609F709F40A0319F50A0319F60AEC
:1002E0000319F70A0130F8007808A1060030A500CC
:1002F0000030A4000030A3000030A2007308720494
:1003000071047004031985298629C729A001A00A50
:1003100094290130F035F10DF20DF30D890B8A2986
:100320000130F8007808A007F31F97299829892938
:100330000130A235A30DA40DA50D890B99297308D1
:100340007702031DAD2972087602031DAD297108DD
:100350007502031DAD2970087402031CB029B12970
:10036000BA297008F4027108F53B7208F63B73086D
:10037000F73B22140130F336F20CF10CF00C890B30
:10038000BB290130A002031DC629C72998292108CD
:100390000319CB29CC29D729A209A309A409A509A6
:1003A000A20A0319A30A0319A40A0319A50A250816
:1003B000F3002408F2002308F1002208F0000800EE
:1003C000F80078080319E529E629FA29F31FE92935
:1003D000EA29FA297009FA007109FB007209FC0088
:1003E0007309FD00FA0A0319FB0A0319FC0A031931
:1003F000FD0A022A7308FD007208FC007108FB0068
:100400007008FA007308720471047004031D092A4D
:100410000A2A132A0030F3000030F2000030F10005
:100420000030F0008B2A9630F4007408F900232A7B
:100430000130F4007408F9070130FD36FC0CFB0CA8
:10044000FA0C890B1D2AFE307D05031D282A292A56
:10045000182A3D2A0130F4007408F9070130FA0720
:100460000030FB3D0030FC3D0030FD3D0130FD36ED
:10047000FC0CFB0CFA0C890B372AFF307D05031DA1
:10048000422A432A2A2A4D2A0130F9020130FA353C
:10049000FB0DFC0DFD0D890B472AFC1B502A512A30
:1004A000572A023079020318562A572A442A791803
:1004B0005A2A5B2A632AFF30FA05FF30FB057F309A
:1004C000FC05FF30FD050310F90C7908F400F50177
:1004D000F601F7011830F435F50DF60DF70D890B1F
:1004E0006B2A7408FA047508FB047608FC04770884
:1004F000FD04780803197D2A7E2A832AF31F812AA6
:10050000822A832AFD177D08F3007C08F2007B080D
:10051000F1007A08F00008008F3193278231803192
:1005200026208231FA30200069066A04031D992AC8
:100530009A2AA32A003080310B20823171082000D2
:10054000DE007008DD004430BD008030BC000030AB
:10055000BB000030BA004130A300F030A2000030F0
:10056000A1000030A0005D08F0005E08F100F2017B
:10057000F30100308131E021823173082000A700AF
:100580007208A6007108A5007008A40085319625A0
:10059000823120002308C1002208C0002108BF00CA
:1005A0002008BE008331E223823120003D08D800BC
:1005B0003C08D7003B08D6003A08D5005808A700E9
:1005C0005708A6005608A5005508A4004230A3000D
:1005D000C830A2000030A1000030A000853196256F
:1005E000823120002308BD002208BC002108BB0086
:1005F0002008BA0080315F20823120003D08DC00F5
:100600003C08DB003B08DA003A08D9000030A900BA
:100610000030A8000030A7000A30A6005C08AD003A
:100620005B08AC005A08AB005908AA008031D420FE
:10063000823120002708AF002608AE000030B0004D
:10064000B1008F31BA27823103302000D4009730B7
:10065000890B282BD40B282B003200302000A90056
:100660000030A8000030A7000A30A6000030F300D8
:100670000030F2000030F1000A30F0005C08F700B2
:100680005B08F6005A08F5005908F4008131502142
:10069000823173082000AD007208AC007108AB0015
:1006A0007008AA008031D420823120002708AF00D2
:1006B0002608AE000130B0000030B1008F31BA27FB
:1006C000823103302000D4009730890B652BD40B86
:1006D000652B003200302000A9000030A800003057
:1006E000A7000A30A6000030F3000030F20000300E
:1006F000F1006430F0005C08F7005B08F6005A086F
:10070000F5005908F400813150218231730820002E
:10071000AD007208AC007108AB007008AA0080310F
:10072000D420823120002708AF002608AE00023016
:10073000B0000030B1008F31BA2782310330200081
:10074000D4009730890BA22BD40BA22B003200309F
:10075000F3000030F2000330F100E830F000200038
:100760005C08F7005B08F6005A08F5005908F40029
:1007700081315021823171082000AF007008AE0035
:100780000330B0000030B1008F31BA27823103301E
:100790002000D4009730890BCB2BD40BCB2B00320D
:1007A00001302000E9020030EA3B69086A04031DB9
:1007B000DA2BDB2B922AFA30E9000030EA00922A89
:1007C00080310228200041088039C2004208CB0055
:1007D0004135C2004208D200C01FEF2BF02BF12B95
:1007E000521452080319F52BF62B062C520A031D3E
:1007F000FA2BFB2B032C0030C1000030C00000306E
:10080000BF000030BE00C017C1010E2C0030C10077
:100810000030C0000030BF000030BE003D0880390D
:10082000C2004208CB063D35C2004208D300BC1FBF
:100830001A2C1B2C1C2C531453080319202C212C6C
:10084000312C530A031D252C262C2E2C0030BD00E4
:100850000030BC000030BB000030BA00BC17BD0146
:10086000392C0030BD000030BC000030BB0000302F
:10087000BA003D083C043B043A04031D402C412CC3
:100880005A2C0030C1000030C0000030BF000030E2
:10089000BE008030C0047F30C1044B08C200420853
:1008A000C1044108BD004008BC003F08BB003E0831
:1008B000BA00952D5208031D5E2C5F2C682C003069
:1008C000BD000030BC000030BB000030BA00952DE8
:1008D0005208C200C3014308C50053084202C400C5
:1008E000031CC50344087F3ECC000030453DCD00CD
:1008F0004108CA004008C9003F08C8003E08C700B8
:100900000030C1000030C0000030BF000030BE0029
:100910000030D1000030D0000030CF000030CE00D9
:10092000D301D02C53080319962C972CB12C0130ED
:10093000C735C80DC90DCA0D890B982C0130BE35BD
:10094000BF0DC00DC10D890B9F2CD11FA82CA92C48
:10095000AA2C3E140130CE35CF0DD00DD10D890B10
:10096000AB2C3D084A02031DBF2C3C084902031D65
:10097000BF2C3B084802031DBF2C3A084702031C4A
:10098000C22CC32CCC2C51173A08C7023B08C83BD9
:100990003C08C93B3D08CA3B0130C2004208D307AE
:1009A0001A305302031CD52CD62C922C4A08490429
:1009B000480447040319DD2CDE2CF72C4E14F72CC9
:1009C0000130BE35BF0DC00DC10D890BE12CD11F0B
:1009D000EA2CEB2CEC2C3E140130CE35CF0DD00D93
:1009E000D10D890BED2CFF30CC07FF30CD3DC01F62
:1009F000FA2CFB2CE02CD301D11FFF2C002D1C2D39
:100A0000FF304E05C200FF304F05C300FF305005D8
:100A1000C4007F305105C500450844044304420426
:100A20000319132D142D172DD301D30A1C2D3E1C91
:100A30001A2D1B2D1C2D142D53080319202D212D8B
:100A4000492D0130BE070030BF3D0030C03D0030B1
:100A5000C13D411C2C2D2D2D492D3E08C2003F08C3
:100A6000C3004008C4004108C5000130C600C537B6
:100A7000C40CC30CC20CC60B372D4508C10044087A
:100A8000C0004308BF004208BE000130CC07003060
:100A9000CD3D4D08803AC20080304202031D522DE8
:100AA000FF304C02031C552D562D632DFF302000C6
:100AB000CC000030CD000030C1000030C00000305C
:100AC000BF000030BE0020004D08803AC2008030D8
:100AD0004202031D6D2D01304C020318702D712D43
:100AE0007D2D2000CC01CD010030C1000030C000C0
:100AF0000030BF000030BE00CB0120004C08C20017
:100B00004208D200521C852D862D882DC0178C2DB1
:100B10007F30C2004208C0055236C2004208C10000
:100B20004B08C2004208C104512C080020002308D1
:100B30008039A8002808AD002335A8002808B30094
:100B4000A21FA32DA42DA52D331433080319A92DFD
:100B5000AA2DB92D330A031DAE2DAF2DB72D0030B0
:100B6000A3000030A2000030A1000030A000A217B6
:100B7000C12D0030A3000030A2000030A1000030E1
:100B8000A00027088039A8002808AD062735A8004E
:100B90002808B200A61FCD2DCE2DCF2D321432083D
:100BA0000319D32DD42DE32D320A031DD82DD92DB1
:100BB000E12D0030A7000030A6000030A500003075
:100BC000A400A617EB2D0030A7000030A6000030CF
:100BD000A5000030A40032080319EF2DF02DF52DEB
:100BE0003308031DF42DF52DFE2D0030A300003039
:100BF000A2000030A1000030A000EC2F2008A800C7
:100C00002808F00026088F31DD2785317108200083
:100C1000B9007008B8003808A800A901AA01AB0102
:100C20002B08B1002A08B0002908AF002808AE0040
:100C30003908A800A901AA01AB012B08B7002A08AE
:100C4000B6002908B5002808B4002108A800280823
:100C5000F00025088F31DD27853171082000B900AB
:100C60007008B8003808A800A901AA01AB0128083B
:100C7000AE072908AF3D2A08B03D2B08B13D390821
:100C8000A800A901AA01AB012808B4072908B53DAD
:100C90002A08B63D2B08B73D2208A8002808F00016
:100CA00024088F31DD27853171082000B9007008D4
:100CB000B8003808A800A901AA01AB012808AE07AE
:100CC0002908AF3D2A08B03D2B08B13D3908A800DE
:100CD000A901AA01AB012808B4072908B53D2A08D3
:100CE000B63D2B08B73D0830AE35AF0DB00DB10D98
:100CF000890B742E2108A8002808F00024088F31E1
:100D0000DD27853171082000B9007008B800380867
:100D1000AE073908AF3D0030B03DB13D2008A80016
:100D20002808F00025088F31DD2785317108200063
:100D3000B9007008B8003808AE073908AF3D003078
:100D4000B03DB13D0830AE35AF0DB00DB10D890BE2
:100D5000A32E2008A8002808F00024088F31DD27E2
:100D6000853171082000B9007008B8003808AE0756
:100D70003908AF3D0030B03DB13D2108A80028083A
:100D8000F00026088F31DD27853171082000B90079
:100D90007008B8003808B4073908B53D0030B63DD2
:100DA000B73D2208A8002808F00025088F31DD276C
:100DB000853171082000B9007008B8003808B40700
:100DC0003908B53D0030B63DB73D2208A8002808D7
:100DD000F00026088F31DD27853171082000B90029
:100DE0007008B8003808A8003908A900AA01AB01AA
:100DF0000830A835A90DAA0DAB0D890BF92E2808CE
:100E0000B4072908B53D2A08B63D2B08B73D2E0882
:100E1000A8002F08A9003008AA003108AB0018303C
:100E2000AB36AA0CA90CA80C890B102F2808B40704
:100E30002908B53D2A08B63D2B08B73D0830AE3528
:100E4000AF0DB00DB10D890B1F2F33083207A8006D
:100E5000A901A90D2808823EB800FF30293DB9003C
:100E6000482F0130B435B50DB60DB70D890B322FB3
:100E7000B11F3B2F3C2F3D2F34140130AE35AF0D49
:100E8000B00DB10D890B3E2FFF30B807FF30B93DD3
:100E9000B61F4B2F4C2F312FB201B11F502F512FA6
:100EA0006D2FFF302E05A800FF302F05A900FF3061
:100EB0003005AA007F303105AB002B082A04290435
:100EC00028040319642F652F682FB201B20A6D2F11
:100ED000341C6B2F6C2F6D2F652F32080319712F67
:100EE000722F9A2F0130B4070030B53D0030B63D67
:100EF0000030B73D371C7D2F7E2F9A2F3408A80075
:100F00003508A9003608AA003708AB000130AC004C
:100F1000AB37AA0CA90CA80CAC0B882F2B08B70078
:100F20002A08B6002908B5002808B4000130B8071F
:100F30000030B93D3908803AA80080302802031DEE
:100F4000A32FFF303802031CA62FA72FB12F7F300D
:100F50002000B7008030B6000030B5000030B4008B
:100F6000E02F20003908803AA80080302802031DB5
:100F7000BB2F013038020318BE2FBF2FCA2F0030FD
:100F80002000B7000030B6000030B5000030B400DB
:100F9000AD01E02F20003808A8002808B300FF307A
:100FA000B405FF30B5057F30B6050030B705331CFA
:100FB000DA2FDB2FDC2FB6173336A8002808B7004E
:100FC0002D08A8002808B7043708A3003608A20097
:100FD0003508A1003408A00008008F317F27873131
:100FE000E9008F3180278731EA00593084000030D2
:100FF000850010308F3185278731200082318C2A7F
:101EFE00FA34003416302100970008006400800187
:101F0E000131890B862F0034D03021009E009B01B9
:101F1E009C0101309D0008008F31A0278F31803148
:101F2E0004208F318F3181278F318F318B278F3165
:101F3E000800220090018C018D018E0108302100D5
:101F4E009000FF308C00F0308D008E013F3023006A
:101F5E008D003F308C00240090018D0121009517DB
:101F6E0022009D01080020008E01310885003008F6
:101F7E0084000A3084079030853D00088D002F08BC
:101F8E0085002E088400003084079030853D0008BF
:101F9E008E00023030063104031DD62FD72FDA2FD4
:101FAE0022008E17DC2F22008E130800F800F40199
:101FBE00F5017008F200F3017208F6007308F700DD
:101FCE00781CEA2FEB2FEF2F7608F4077708F53DF4
:101FDE000130F635F70D890BF02F0310F80C780849
:101FEE00031DFA2FFB2FE72F7508F1007408F00080
:101FFE0008003F3406345B344F3466346D347D3420
:0E200E0027347F346F340E340D340B34073416
:020000040001F9
:04000E00E43FFF1EAE
:00000001FF
